:020000040800F2
:10000000B0070020ED010008CF240008C724000835
:10001000CB240008A11300087D2700080000000081
:10002000000000000000000000000000FD240008A7
:10003000A513000800000000D1240008FF240008D8
:10004000070200080702000807020008070200086C
:10005000070200080702000807020008070200085C
:10006000070200080702000807020008070200084C
:10007000070200080702000807020008070200083C
:10008000070200080702000807020008070200082C
:10009000070200080702000807020008070200081C
:1000A000070200080702000807020008070200080C
:1000B00007020008070200080702000807020008FC
:1000C00007020008070200080702000807020008EC
:1000D0000702000859270008070200080702000865
:1000E00007020008070200080702000807020008CC
:1000F00007020008070200080702000807020008BC
:1001000007020008070200080702000807020008AB
:10011000070200080702000807020008070200089B
:10012000070200080702000807020008070200088B
:1001300000F002F800F04AF80AA090E8000C8244AF
:100140008344AAF10107DA4501D100F03FF8AFF28C
:10015000090EBAE80F0013F0010F18BFFB1A43F0A5
:1001600001031847BCC20000DCC20000103A24BFE3
:1001700078C878C1FAD8520724BF30C830C144BF0C
:1001800004680C607047000000230024002500264E
:10019000103A28BF78C1FBD8520728BF30C148BFEA
:1001A0000B607047662909F00E81782900F0748091
:1001B000002070471FB500F0A1FB040000200021C3
:1001C00008F004FDE0601FBD10B510BD00F0B2FCEA
:1001D0001146FFF7EFFF08F01EFC00F0D0FC03B45F
:1001E000FFF7F2FF03BC02F002FB00000948804762
:1001F00009480047FEE7FEE7FEE7FEE7FEE7FEE709
:10020000FEE7FEE7FEE7FEE704480549054A064B20
:10021000704700000725000831010008B0010020E8
:10022000B0070020B0030020B0030020704700009A
:100230000FB4044910B503AA029800F04DFB10BC9E
:100240005DF814FB0800002070B50446856900685D
:10025000C10601D5302600E02026C00707D070BDBA
:10026000D4E9012130469047206A401C20626D1E6F
:10027000F6D570BD70B5044685690078C00707D112
:1002800070BDD4E9012120209047206A401C2062E3
:100290006D1EF6D570BD000070B504460D462146B2
:1002A0001068AFF300802188090502D50F4A7A440F
:1002B00002E00E4A7A440E32002104F1240305E0E4
:1002C00000F00F060009965D5E54491C0028F7D126
:1002D00020780023000704D5702D02D009B1022335
:1002E00011322046BDE8704000F08DB8B0C000006B
:1002F0002DE9F0474FF0000A89460446C0F820A0D7
:100300002046E1688847002876D0252806D0D4E921
:1003100001219047206A401C2062F1E7E1682046F5
:1003200000258847C4F81CA006460027C4F818A07A
:100330002A2E09D0304602F053FA38B304EB87086E
:10034000303EC8F8186019E059F8041B204604EB49
:1003500087029161E1688847012F064618D1E0695C
:10036000002820DA25F020051DE0D8F8180000EB61
:10037000800006EB40003038C8F818002046E168DD
:100380008847064602F02CFA0028EED1012F0AD049
:100390002E2E08D12046E16888477F1C0646022F92
:1003A00045F02005C4DBA069002803DA404245F08F
:1003B0000105A061E80701D025F01005B6B1A6F14E
:1003C0004100192802D8203645F400654A463146D6
:1003D000204625604D46FFF7E5FE58B1012806D0BE
:1003E000ED1D25F0070000F1080989E704E005F19B
:1003F000040985E730468AE7206ABDE8F087704740
:100400007047704770472DE9F0470D469946924670
:10041000044600F124080168880604D5E06921F04B
:100420001001216000E00120A84201DD471B00E02F
:100430000027A1697A1902EB0900081AA061207847
:10044000C00602D42046FFF7FFFE002608E0D4E9EC
:1004500001211AF806009047206A401C761C206291
:100460004E45F4DB2078C0060AD52046FFF7ECFEA7
:1004700006E0D4E9012130209047206A401C206228
:10048000381EA7F10107F4DC07E0D4E9012118F8D0
:1004900005009047206A401C2062281EA5F1010536
:1004A000F3DC2046FFF7E6FE2078000602D50220A6
:1004B000BDE8F0870120FBE770472DE9FF4F0C46B0
:1004C0001E464FF0FF378BB0D2E90001DDF86080A7
:1004D0000A908A46C1F30A5505B93D4600210846EF
:1004E0004FF00000BAF1000F00F4400005DA00EB15
:1004F00080004FF4400101EA50004FEA9059B9F1F1
:10050000010F00DDB9460A9850EA4A000ED044F6C1
:100510001050A5F2FF3545432F14B8F1000F1ED03F
:100520007542291E1EDDC9F100021CE0B8F1010F61
:100530004FF0000001D0302103E0F24305E02154E8
:10054000401CB042FBDB30460022002121540B99B5
:10055000C1F80880C1E900200FB0BDE8F08FBD1BD5
:100560006D1CDEE74A4600DA694206A800F068FA28
:1005700006AB93E8070003AB83E8070050460A99EF
:1005800000F046FB8DE80700A0F500501F380090F2
:100590000398002D0ADD42F21F014A460844002359
:1005A00003A90390684600F0AFFD09E0A0F50050F4
:1005B0004A461F38002303A90390684600F0B9FD9E
:1005C0008DE807000004000C03D04FF0FF30410815
:1005D00000E01046B8F1000F03D00022009215464B
:1005E0001EE0751E05D400F08DF9303262556D1E87
:1005F000F9D5B3460122084302D000227F1C04E053
:100600002078302801D100227F1E002A099784D04B
:100610001DE0112D07DA00F075F9303262556D1CBE
:1006200050EA0102F5D1084302D00098C8B10EE0AB
:100630000021681E05E0235C625C63542254401E66
:10064000491C8142F7DBAB46A81B401E09900020E5
:1006500004F80B000B98099AC0F80880C0E9002B39
:100660007AE711264FF0000857E72DE9F04F88464A
:100670000446D21D22F0070191B0D1E90001CDE975
:100680000A0102F07DF802460B98C00F01D02D2020
:1006900007E02068810701D52B2002E0202101EA34
:1006A000C000032A099001D0072A05DB0346414612
:1006B000204600F085F90BE12078800601D5E0693D
:1006C00000E00620B8F1650F814606D0B8F1660F4C
:1006D00018D0B8F1670F70D131E00020B9F1110FD7
:1006E000009001DB112301E009F101030AAA01A92D
:1006F0000CA8FFF7E2FEDDE90C70002609F1010508
:10070000834647E001204B4600904FF000470AAA7D
:1007100001A90CA8FFF7D1FEDDE90DB00C995D46EB
:10072000002610B909F101000D18B9EB050003D43A
:10073000C0F1FF3609F10105A5EB09002BE0B9F185
:10074000010F01DA4FF001090020B9F1110F0090FB
:10075000484601DD112300E003460AAA01A90CA8BE
:10076000FFF7ABFEDDE90C704D460026834620788E
:1007700000070AD4AB4500DA5D4601A8012D04DD6F
:10078000411911F8011C302907D04F4502DA17F141
:10079000040F04DA012082460FE06D1EEEE7002F01
:1007A00002DCED1B3E4403E0781CA84200DD7D1C0A
:1007B000B81B00F1010A4FF000472078000703D46E
:1007C000AA4501DB4FF0FF3A0021B7F1004F0DF1D0
:1007D00043088DF8431024D002202B23002F01DA88
:1007E0007F422D230A21021EA0F1010000DC5FB12F
:1007F00097FBF1FC97FBF1F201FB1C7C17460CF117
:10080000300C08F801CDEEE7A8F101000370218853
:10081000090501D5452100E06521A0F1010800F896
:10082000011C09980FA9A1EB0807FF1D00B10120C9
:10083000411901EBEA70A1693844081A401EA06111
:100840002078C00602D42046FFF7FEFC099828B1A4
:10085000D4E901219047206A401C20622078C0061C
:1008600022D52046FFF7F0FC1EE0002E04DBB34546
:1008700002DD01A8805D00E03020D4E9012190472D
:10088000206A401C2062761CAAF101005FEA000A7F
:100890000AD100F033F8C0680168405CD4E9012156
:1008A0009047206A401C2062281EA5F10105DCDC6F
:1008B00007E0D4E9012118F8010B9047206A401C99
:1008C0002062381EA7F10107F3DC2046FFF7D2FCB7
:1008D000032011B041E60000074B70B50D467B4484
:1008E00000F05BF80446284600F01CF910B14FF008
:1008F000FF3070BD204670BD6B2700000048704778
:100900007001002030B5B0F10A024FEA900E71F18B
:1009100000034EEA817EB0EB0E0061EB91014FEADD
:10092000101E4EEA017E10EB0E0041EB11114FEA52
:10093000102E4EEA016E10EB0E0041EB11214FEA32
:10094000104E4EEA014E10EB0E0041EB11414018E3
:1009500041F100014FEAD00040EA41704FEAD10175
:1009600010EB80054FEA810444EA907444EB0104E3
:100970006D1944EB0404521BA3414FF0000348BF20
:100980000A3200D530BD401C41F1000130BD0000ED
:1009900001694A1C02610878704700B58FB0CDE943
:1009A00001310021059105497944CDE90310114633
:1009B0006846FFF79DFC0FB000BD0000E5FFFFFF9C
:1009C0002DE9F0411F46044603260168072A01F479
:1009D000006004DB08B116A505E016A503E008B128
:1009E00015A500E015A521F010002060A069C01E2B
:1009F000A0610FB1401EA0612046FFF725FC4FB15A
:100A0000D4E9012138469047206A401C2062C01C6E
:100A1000206206E0206AFAE7D4E9012115F8010B0B
:100A20009047761EF8D22046FFF724FCBDE8F081FF
:100A30004E414E006E616E00494E4600696E660082
:100A40002DE9F047814616468AB0354878440DC8EE
:100A50008DE80D0032487844801C03AC0DC884E852
:100A60000D0041F69B300844372190FBF1F290FBDA
:100A7000F1F5A5F1800501FB12041B3C02D564428F
:100A8000012000E00020DFF898A080460027FA440B
:100A9000AAF1BE0A0EE0E0070AD03246684607EB2C
:100AA000470101230AEB810100F043FB8DE80700B9
:100AB00064107F1C002CEED1194F7F44AE3F19E02B
:100AC000E80715D007EB04100DF1180A90E80E00A6
:100AD0008AE80E00C068F04201D1981908903246A9
:100AE000012306A903A800F024FB03AB83E8070059
:100AF0006D10641C002DE3D14FF0010332466946AE
:100B0000B8F1000F03A802D000F0FEFA01E000F0F7
:100B100010FBC9E90001C9F808200AB0BDE8F08758
:100B2000B8B90000007B00F08000704700487047B3
:100B3000500100207546FFF7F9FFAE4605006946F3
:100B4000534620F00700854618B020B5FFF75CFB40
:100B5000BDE820404FF000064FF000074FF00008BE
:100B60004FF0000B21F00701AC46ACE8C009ACE83F
:100B7000C009ACE8C009ACE8C0098D46704710B5A3
:100B80000446AFF300802046BDE81040FFF727BBC6
:100B90004FF0013C50F8042B51F8043B9A4221D10C
:100BA000A2EB0C03934313EACC1317D150F8042B98
:100BB00051F8043B9A4215D1A2EB0C03934313EA7C
:100BC000CC130BD150F8042B51F8043B9A4209D1B5
:100BD000A2EB0C03934313EACC13DBD04FF00000DD
:100BE000704700BFD01A01BAB1FA81F101F01801C3
:100BF00022FA01F0CB40C1F12001DBB2C0B2C01A31
:100C00002CFA01F3D11A914311EAC311E6D17047CE
:100C10005FEA400C08BF91F0000F4FEA8C234FEAC7
:100C2000C12243EA51514FEA1C5018BF00F5F04071
:100C30004FEA300018BF41F000415FEA6C5C00F001
:100C40002980BCF1FF3F08BF40F080407047130C83
:100C500006BF12044FF0100C4FF0000C130E04BF2F
:100C600012020CF1080C130F04BF12010CF1040C5A
:100C7000930F04BF92000CF1020CD30F04BF52007B
:100C80000CF1010C11464FF00002A0F11F00A0EB87
:100C90000C00704711F0004F08BF704731F0004161
:100CA0003FF4D5AF0B0C06BF09044FF0100C4FF00A
:100CB000000C0B0E04BF09020CF1080C0B0F04BF53
:100CC00009010CF1040C8B0F04BF89000CF1020C1C
:100CD000CB0F04BF49000CF1010CCCF12003A0EBB9
:100CE0000C0022FA03F302FA0CF241EA030100F1CC
:100CF0000100704720F07F4C80EA030023F07F471B
:100D0000ACEB070303F57C5300F0004003F1FF0355
:100D10002DE980494FEA154B09B44FEA144325EAFF
:100D20000B4E24EA03480FF2042606EB132749086A
:100D30003E785FEA320203FB0667C7F5000707FB50
:100D400006F64FEA54374FEAD64606F1020607FB8D
:100D5000066CCCF1005C4FEA1C472CEA074C07FB01
:100D600006F40CFB06F504EB15464FEA961634BF65
:100D700000204FF000404FEAD13706FB07FC4FEA56
:100D80001C4C0CFB0BF7D21B03FB0CF761EB0701B0
:100D90000CFB0EF7B0EB074072EB17420CFB08F7A9
:100DA00034BFA2EB0742B2EB074261EB17414FEAB7
:100DB0000C444FEA910706FB07FC4FEA1C4C0CFB66
:100DC0000BF7B0EBC74072EB573203FB0CF734BFA5
:100DD000A2EBC742B2EBC74261EB57310CFB0EF7F7
:100DE000B0EBC70072EB57720CFB08F734BFA2EBF5
:100DF000C702B2EBC70261EB5771039F4FEA8161F3
:100E000041EA921104EBCC044FEAD1374FEA8262F7
:100E100006FB07FC42EA90124FEA80604FEA1C4C46
:100E20000CFB0BF7D21B03FB0CF761EB07010CFB70
:100E30000EF7B0EB074072EB17420CFB08F734BF1C
:100E4000A2EB0742B2EB074261EB17414FEA8C5528
:100E50004FEA910704EB9C2406FB07FC4FEA1C4C6D
:100E60000CFB0BF7B0EBC74072EB573203FB0CF7F0
:100E700034BFA2EBC742B2EBC74261EB57310CFB68
:100E80000EF7B0EBC70072EB57720CFB08F734BFDC
:100E9000A2EBC702B2EBC70261EB577115EB4C2511
:100EA0004FEA816141EA92114FEA82624FEAD137FB
:100EB00042EA901206FB07FC44F100044FEA80600E
:100EC0004FEA1C4C0CFB0BF7D21B03FB0CF761EB3E
:100ED00007010CFB0EF7B0EB074072EB17420CFB5F
:100EE00008F734BFA2EB0742B2EB074261EB1741B0
:100EF00015EB1C154FEA813141EA92414FEA8232EB
:100F000042EA90424FEA80304FEA0C7644F1000406
:100F100048EA03434EEA0B484FF0000EB2EB080CD0
:100F200071EB030724BF624639464EEB0E0E4FF0BD
:100F3000000B0018524149414BEB0B0BB2EB080C74
:100F400071EB03077BF1000B24BF624639464EEB81
:100F50000E0E4FF0000B0018524149414BEB0B0BAA
:100F6000B2EB080C71EB03077BF1000B24BF624668
:100F700039464EEB0E0E51EA020718BF46F0010645
:100F800016EB0E7655F1000254F1000103D5BDE8D1
:100F90008901BDE80088BDE88901BDE80048B619AF
:100FA000524141EB0101A3F10103704780807F7E34
:100FB0007D7C7B7A797877767675747372717170CF
:100FC0006F6E6E6D6C6C6B6A6A6968686766666581
:100FD0006464636362616160605F5F5E5E5D5D5C0F
:100FE0005C5B5B5A5A595958585757565655555580
:100FF0005454535352525251515050504F4F4F4EE0
:101000004E4D4D4D4C4C4C4B4B4B4A4A4A4949492D
:10101000484848474747474646464545454444446F
:10102000444343434342424242414141002B9C4698
:1010300030D477002BD01CB54FEA370703B44FF0FC
:1010400010004FF01001BAF1000F06D0BCF1000FF4
:10105000DCBF40F0080040F008014FF000000FBC7A
:10106000BDE810400BF1010BBBF1010F08BF5FEAB7
:10107000170722BF12F1010211F101014FF00041E7
:1010800043F1000300F0004043EA00007047F9D349
:101090005708D0E746EA064613F1400F4FEA1646D6
:1010A0001FDD13F1200FDFBF16430A460021203356
:1010B0005B42BED0C3F1200746EA064602FA07F7B4
:1010C0004FEA164646EA0706C3F1200722FA03F262
:1010D00001FA07F721FA03F14FF0000342EA070291
:1010E000A7E746EA020646EA06464FEA164646EAF9
:1010F0000106BCBF46EA0646360C4FF000034FF02F
:1011000000024FF0000194E72DE9804C9A46934687
:1011100070B491E8380007C831EA400C48BF34EA9F
:10112000430C03D5FFF7E6FDFFF780FFF0BCBDE8F9
:10113000008C2DE9804C9A46934670B491E83800B3
:1011400007C810F0804F08BF13F0804F03D100F0A4
:1011500005F8FFF76BFFF0BCBDE8008C20F07F477F
:1011600080EA030023F07F4C07EB0C03A3F57C53CC
:1011700000F00040A3F1FE0392F0000F00F0B380F6
:1011800095F0000F00F077802DE901494FEA1140FA
:101190004FEA144621EA004800FB06FC24EA064711
:1011A00008FB06F607FB08F800FB07F718EB0648F4
:1011B0004CEB164C4FEA124B18EB07484FEA15461A
:1011C0004CEB174022EA0B4E0BFB06FC25EA0647C8
:1011D0000EFB06F607FB0EFE0BFB07F71EEB064E9B
:1011E0004CEB164C4FF000061EEB074E4CEB174B2A
:1011F00018EB0B0840F1000018EB0E0B58EB000841
:1012000040F100008F1A4FF000013CBFC943661B3C
:1012100014BFB5EB040C00213CBFC943F61B4FEAD9
:1012200017444EEA8E0E27EA04454FEA1C4704FB9A
:1012300007622CEA074C05FB07F70CFB05F604FBDD
:101240000CFC16EB074642EB174216EB0C4642EB42
:101250001C421BEB060658EB0202414146EA9E0681
:1012600001D5BDE80189B619524141EB0101A3F155
:101270000103BDE801894FEA14454FEA114724EA0A
:10128000054621EA074C05FB07F406FB07F70CFBB4
:1012900006F105FB0CFC11EB074144EB17444FEA48
:1012A000124711EB0C4144EB1C4422EA074C05FBAE
:1012B00007F206FB07F70CFB06F605FB0CFC16EB2A
:1012C000074642EB174216EB0C4642EB1C456A18E8
:1012D00054F1000148BF7047B619524141EB01017A
:1012E000A3F10103704795F0000F37D04FEA114288
:1012F0004FEA144721EA024624EA074C02FB07F1B1
:1013000006FB07F70CFB06F402FB0CFC14EB07448E
:1013100041EB17414FEA154714EB0C4441EB1C41DC
:1013200025EA074C02FB07F506FB07F70CFB06F660
:1013300002FB0CFC16EB074645EB174516EB0C467B
:1013400045EB1C42121951F1000148BF7047B61914
:10135000524141EB0101A3F1010370474FEA1445EB
:101360004FEA114724EA054621EA074C05FB07F13D
:1013700006FB07F70CFB06F24FF0000605FB0CFC22
:1013800012EB074241EB174112EB0C4251EB1C41AF
:1013900048BF7047921841EB0101A3F10103704768
:1013A00000BFFEE77047000070B50446002594F8C2
:1013B0002100022803D00420A0630125C1E0206899
:1013C000006820F00E00216808602068006820F0A6
:1013D0000100216808605C492068884252D95A4956
:1013E00078392068884201D1012047E056496439A4
:1013F0002068884201D1102040E0534950392068CC
:10140000884201D1801539E04F493C392068884233
:1014100001D1801432E04C4928392068884202D139
:101420004FF480302AE0484914392068884202D1BC
:101430004FF4801022E044492068884201D14004E2
:101440001CE042492068884201D1012016E03F4952
:1014500014312068884201D110200FE03B49283127
:101460002068884201D1801508E038493C31206865
:10147000884201D1801401E04FF480303349091FC4
:10148000086051E0304978392068884201D1012054
:1014900047E02D4964392068884201D1102040E09E
:1014A000294950392068884201D1801539E0264900
:1014B0003C392068884201D1801432E02249283921
:1014C0002068884202D14FF480302AE01E49143946
:1014D0002068884202D14FF4801022E01A49206827
:1014E000884201D140041CE018492068884201D19B
:1014F000012016E0154914312068884201D11020DE
:101500000FE0124928312068884201D1801508E097
:101510000E493C312068884201D1801401E04FF42B
:101520008030094980394860012084F8210000BFDB
:10153000002084F8200000BF606B10B12046616B72
:101540008847284670BD0000800002400804024021
:101550002DE9F847024600239C467BE14FF0010845
:1015600008FA03F4D1F8008008EA0400A0427DD113
:10157000DFF8F4A2D1F80480A8EB0A09D0453AD0EC
:1015800014DCB8F1030F50D009DCB8F1000F31D0F2
:10159000B8F1010F1CD0B8F1020F49D120E0B8F129
:1015A000110F18D0B8F1120F42D11EE0B9F5881F03
:1015B00025D006DCB9F5803F20D0B9F5801F37D1A2
:1015C0001AE0B9F5001F18D0B9F5041F30D117E0A3
:1015D000D1F80CC02DE0D1F80C8008F1040C28E003
:1015E000D1F80C8008F1080C23E0D1F80C8008F148
:1015F0000C0C1EE000BF00BF00BF00BF00BF00BF5B
:10160000D1F80880B8F1000F02D14FF0040C0BE0C4
:10161000D1F80880B8F1010F03D14FF0080C146124
:1016200002E04FF0080C546103E04FF0000C00E0C2
:1016300000BF00BFFF2801D8904601E002F1040876
:101640004646FF2802D84FEA830803E0A3F10808C2
:101650004FEA88084746D6F800804FF00F0909FA8C
:1016600007F928EA09080CFA07F900E07AE048EAE5
:101670000908C6F80080D1F8048008F08058B8F155
:10168000805F6FD100BFDFF8E481D8F8188048F0A0
:101690000108DFF8D891C9F81880C846D8F8188032
:1016A00008F00108CDF8008000BF00BF4FEAB9384C
:1016B0004FEA930958F829504FEA83784FEA18798E
:1016C0004FF00F0808FA09F825EA0805DFF8A081AD
:1016D000424502D14FF0000824E0DFF898814245EE
:1016E00002D14FF001081DE0DFF88C81424502D1A4
:1016F0004FF0020816E0DFF88481424502D14FF036
:1017000003080FE0DFF87881424502D14FF004086A
:1017100008E0DFF87081424502D14FF0050801E092
:101720004FF006084FEA83794FEA197908FA09F869
:1017300048EA0505DFF850814FEA930948F8295037
:10174000D1F8048008F48038B8F5803F0BD1DFF879
:101750003C81D8F8008048EA0008DFF83091C9F8E9
:1017600000800AE075E0DFF82481D8F8008028EADC
:101770000008DFF81891C9F80080D1F8048008F457
:101780000038B8F5003F0ED1DFF8008108F10408F9
:10179000D8F8008048EA0008DFF8F09009F1040961
:1017A000C9F800800DE0DFF8E48008F10408D8F8FB
:1017B000008028EA0008DFF8D49009F10409C9F88C
:1017C0000080D1F8048008F48018B8F5801F0ED18D
:1017D000DFF8B88008F10808D8F8008048EA000867
:1017E000DFF8A89009F10809C9F800800DE0DFF8DA
:1017F0009C8008F10808D8F8008028EA0008DFF883
:101800008C9009F10809C9F80080D1F8048008F427
:101810000018B8F5001F0ED1DFF8708008F10C0831
:10182000D8F8008048EA0008DFF8609009F10C0958
:10183000C9F800800DE0DFF8548008F10C08D8F8F2
:10184000008028EA0008DFF8449009F10C09C9F883
:1018500000805B1CD1F8008028FA03F8B8F1000F73
:101860007FF47CAEBDE8F887000011100010024044
:1018700000080140000C014000100140001401402C
:1018800000180140001C0140080001400004014014
:10189000024693680B400BB1012000E00020704726
:1018A00010B5C26821EA020302EA010443EA0443D4
:1018B000036110BD0AB1016101E00B0403617047CF
:1018C00001480068704700001000002003480068CD
:1018D0000349097808440149086070471000002056
:1018E0001800002010B50848006840F010000649B4
:1018F0000860052000F080F80F2000F007F800F0E5
:101900002BF8002010BD00000020024070B50446F6
:101910000E4800784FF47A71B1FBF0F00C49096879
:10192000B1FBF0F5284600F0F7FB08B1012070BDCF
:10193000102C07D200222146501E00F01EF8054848
:10194000046001E00120F2E70020F0E71800002029
:1019500000000020140000207047014608460028BF
:1019600009DB00F01F0301229A4043099B0003F1A9
:10197000E023C3F8002100BF70472DE9F05F8046E7
:101980000D461646002700F00FFF074639462A4647
:10199000334601F00700C0F1070ABAF1040F02D97B
:1019A0004FF0040A01E0C0F1070AD14600F1040A31
:1019B000BAF1070F02D24FF0000A01E0A0F1030ACA
:1019C000D4464FF0010A0AFA09FAAAF1010A0AEA12
:1019D000020A0AFA0CFA4FF0010B0BFA0CFBABF1FE
:1019E000010B0BEA030B4AEA0B042146404600F0C8
:1019F000E3FEBDE8F09F000000BF00F00702064BC9
:101A000019684FF6FF031940044B0B4343EA0221C8
:101A1000014B196000BF70470CED00E00000FA05B3
:101A200070B504460D460CB9012070BD5A480068D7
:101A300000F00700A8420ED25748006820F00700C7
:101A40002843554908600846006800F00700A8428E
:101A500001D00120E9E7207800F0020002281DD122
:101A6000207800F00400042805D14C48406840F478
:101A7000E0604A494860207800F00800082805D155
:101A80004648406840F460504449486043484068D4
:101A900020F0F000A168084340494860207800F039
:101AA000010078B36068012806D13C48006800F462
:101AB000003090B90120B8E76068022806D13748A5
:101AC000006800F0007040B90120AEE733480068BC
:101AD00000F0020008B90120A7E73048406820F074
:101AE0000300616808432D494860FFF7E9FE064698
:101AF00009E0FFF7E5FE801B41F28831884202D9F8
:101B0000032092E707E02548406800F00C00616878
:101B1000B0EB810FEDD12048006800F00700A8422B
:101B20000ED91D48006820F0070028431A490860B4
:101B30000846006800F00700A84201D0012074E7C1
:101B4000207800F00400042807D11448406820F4ED
:101B5000E060E168084311494860207800F008001F
:101B6000082808D10D48406820F46050216940EAF7
:101B7000C1000A49486000F03FF808494968C1F3CC
:101B80000311074A515CC8400649086006480068CE
:101B9000FFF7BCFE002048E7002002400010024092
:101BA000CA930008000000201400002001480068CB
:101BB000704700000000002000B5FFF7F7FF044960
:101BC0004968C1F30221034A515CC84000BD0000CE
:101BD00000100240DA93000800B5FFF7E7FF044960
:101BE0004968C1F3C221034A515CC84000BD0000EE
:101BF00000100240DA930008F0B585B00FF26C0CCB
:101C00009CE8E01001A8A0E8E0101CA52D68009554
:101C100000210022002300240020194D696801F0F2
:101C20000C05F5B1042D02D0082D19D101E015489D
:101C300019E001ADC1F38346AC5D01F4803555B1C7
:101C40000F4D6D68C5F340451DF805200D4D6543EA
:101C5000B5FBF2F302E00C4D04FB05F3184602E07D
:101C600000BF084800BF00BF05B0F0BD0203040577
:101C7000060708090A0B0C0D0E0F101001020000D8
:101C80000010024000127A0000093D00F8B5044639
:101C90000CB90120F8BD207800F00100002878D0B0
:101CA000F848406800F00C0004280CD0F548406863
:101CB00000F00C00082811D1F248406800F4803090
:101CC000B0F5803F0AD1EF48006800F400300028EA
:101CD0005FD0606800285CD10120DBE700BF60684E
:101CE000B0F5803F06D1E748006840F48030E54910
:101CF000086028E0606858B9E248006820F4803045
:101D0000E04908600846006820F4802008601AE076
:101D10006068B0F5A02F0BD1DA48006840F480204D
:101D2000D84908600846006840F4803008600AE03E
:101D3000D448006820F48030D24908600846006822
:101D400020F48020086000BF606888B1FFF7B8FD0C
:101D5000054606E0FFF7B4FD401B642801D90320C7
:101D600098E7C848006800F400300028F2D010E07E
:101D7000FFF7A6FD054606E0FFF7A2FD401B64281D
:101D800001D9032086E7BF48006800F4003000282E
:101D9000F2D1207800F00200022857D1B9484068FB
:101DA00000F00C0050B1B748406800F00C00082863
:101DB00018D1B448406800F4803098B9B148006840
:101DC00000F0020020B12069012801D0012061E764
:101DD000AC48006820F0F800616940EAC100A949F8
:101DE000086033E02069E8B10120A7490860FFF7E7
:101DF00067FD054606E0FFF763FD401B022801D999
:101E0000032047E79F48006800F002000028F2D056
:101E10009C48006820F0F800616940EAC1009949D7
:101E2000086013E0002098490860FFF749FD054667
:101E300006E0FFF745FD401B022801D9032029E7F2
:101E40009048006800F002000028F2D1207800F0ED
:101E5000080008282DD1A069B8B101208B4908607D
:101E6000FFF72EFD054606E0FFF72AFD401B02287E
:101E700001D903200EE78348406A00F002000028E1
:101E8000F2D0012000F026FB13E000207F4908601B
:101E9000FFF716FD054606E0FFF712FD401B02287E
:101EA00001D90320F6E67748406A00F002000028D6
:101EB000F2D1207800F00400042873D10027714883
:101EC000C06900F0805070B900BF6E48C06940F032
:101ED00080506C49C8610846C06900F0805000908D
:101EE00000BF00BF01276A48006800F48070B0B9E5
:101EF0006748006840F4807065490860FFF7E0FCBF
:101F0000054606E0FFF7DCFC401B642801D90320EE
:101F1000C0E65F48006800F480700028F2D000BF7F
:101F2000E068012806D15748006A40F00100554991
:101F3000086227E0E06858B95248006A20F00100C2
:101F4000504908620846006A20F00400086219E05F
:101F5000E06805280BD14B48006A40F0040049496D
:101F600008620846006A40F0010008620AE045483D
:101F7000006A20F00100434908620846006A20F028
:101F80000400086200BFE068A0B1FFF799FC0546B5
:101F900009E0FFF795FC401B41F28831884202D9E5
:101FA000032077E622E03748006A00F002000028AC
:101FB000EFD012E0FFF784FC054608E0FFF780FC55
:101FC000401B41F28831884201D9032062E62D4846
:101FD000006A00F002000028F0D1012F05D1294845
:101FE000C06920F080502749C86100BFE069C8B3CC
:101FF0002448406800F00C00082860D0E0690228FE
:1020000048D1002020490866FFF75AFC054606E043
:10201000FFF756FC401B022801D903203AE6194875
:10202000006800F000700028F2D1206AB0F5803F0F
:1020300007D11448406820F40030A16808431149D2
:102040004860D4E9080108430E49496821F4741135
:1020500008430C49486001200B490866FFF730FC33
:10206000054607E03DE0FFF72BFC401B022801D9A5
:1020700003200FE60348006800F000700028F2D04B
:102080002FE0000000100240000042428004424263
:1020900000700040002014490866FFF711FC054657
:1020A00006E0FFF70DFC401B022801D90320F1E5F3
:1020B0000E48006800F000700028F2D111E0E069DD
:1020C000012800D1E6E50948466806F48031206A17
:1020D000814204D106F47011606A814201D001206E
:1020E000D8E50020D6E50000000042420010024082
:1020F000042808D14FF0E021096941F004014FF0B4
:10210000E022116107E04FF0E021096921F00401AC
:102110004FF0E0221161704770B504462546681EF5
:10212000B0F1807F01D301200FE0681E4FF0E02165
:1021300048610F214FF0FF3000F03EFB00204FF0D0
:10214000E021886107200861002070BD7047000011
:102150002DE9F0470446206805682068C6682068B5
:1021600047694FF00008C14605F00F08B8F1000FAD
:102170000AD105F0200038B106F0200020B1204639
:1021800000F0ECF9BDE8F087B8F1000F71D007F06E
:10219000010018B906F4907000286AD005F001001B
:1021A00030B106F4807018B1E06B40F00100E063DC
:1021B00005F0040030B107F0010018B1E06B40F009
:1021C0000200E06305F0020030B107F0010018B131
:1021D000E06B40F00400E06305F0080048B106F051
:1021E000200010B907F0010018B1E06B40F00800C2
:1021F000E063E06B68B305F0200028B106F0200032
:1022000010B1204600F0AAF920684069C0F3801997
:10221000E06B00F0080010B9B9F1000F22D02046A1
:1022200000F07CF92068406900F04000B0B12068FF
:10223000406920F0400021684861606B50B1184847
:10224000616B4863606BFFF7AFF810B1606B416B77
:1022500088470CE02046FFF779FF08E02046FFF7AB
:1022600075FF04E02046FFF771FF0020E06389E777
:10227000FFE705F0800030B106F0800018B120467D
:1022800000F03AFA7EE705F0400030B106F0400079
:1022900018B1204600F052F974E700BF72E7000061
:1022A0000925000810B504460CB9012010BDA0692D
:1022B00000B100E000BF94F8390028B9002084F88C
:1022C0003800204600F028F8242084F839002068DF
:1022D000C06820F400502168C860204600F08EF9E4
:1022E0002068006920F490402168086120684069F6
:1022F00020F02A00216848612068C06840F400503E
:102300002168C8600020E063202084F8390084F848
:102310003A000020CAE7000010B586B004462849FC
:10232000206888424AD100BF00BF2648806940F03B
:102330000400244988610846806900F00400019087
:1023400000BF00BF00BF00BF00BF0846806940F06B
:10235000040088610846806900F00400019000BF15
:1023600000BF00BF00BF00BF0846806940F4804046
:1023700088610846806900F48040019000BF00BF7A
:1023800000BF481502900220039001200490032012
:10239000059002A90C48FFF7DBF84FF4806002902B
:1023A0000020039002A90848FFF7D2F82520FFF784
:1023B000D4FA032211462520FFF7DFFA06B010BD3C
:1023C00000380140001002400008014010B50346EB
:1023D00093F83A0020282FD101B10AB9012010BD8D
:1023E00000BF93F83800012801D10220F7E701204F
:1023F00083F8380000BF99629A85DA850020D86397
:10240000222083F83A0000BF002083F8380000BF84
:102410001868C06840F480701C68E0601868406903
:1024200040F001001C6860611868C06840F020003E
:102430001C68E0600020D2E70220D0E71D4A016856
:10244000914236D11C49098801F4004189BB1A49DF
:10245000098801F4804171B1184909780A2903D02B
:102460000021154A118024E01349098841F40041F4
:10247000114A11801DE0114909780D2906D10E4934
:10248000098841F480410C4A118012E00B49097817
:10249000094A1288C2F30D02094B9954064909886A
:1024A000491C054A118011460988C72901DD002110
:1024B00011807047003801400C0000200E00002001
:1024C00038000020704700BFFEE700BFFEE77047FE
:1024D0007047000008B508490968C9084FF47A72C6
:1024E000B1FBF2F14143009100BF00BF00994A1EC9
:1024F00000920029F9D108BD00000020704710B5F6
:10250000FFF7E4F910BD704770B505466C6A00200E
:10251000E085E0842046FFF719FE70BD0168C968B8
:1025200021F490710268D1600168496921F00101CC
:1025300002685161202180F83A10704710B50446B6
:102540002068C06820F040002168C860202084F81E
:1025500039002046FFF7B6FF002010BD70B50446D5
:1025600094F83A00222847D1A068B0F5805F0CD1DA
:10257000206950B90025A66A20684068C0F30800A9
:102580003080A06A801CA06215E0A56A0026A068C1
:10259000B0F5805F03D0A06828B9206918B9206819
:1025A0004068287004E02068406800F07F002870D0
:1025B000A06A401CA062E08D401E80B2E085C8B9D0
:1025C0002068C06820F020002168C8602068C068CA
:1025D00020F480702168C8602068406920F0010004
:1025E00021684861202084F83A002046FFF726FF42
:1025F000002070BD0020FCE70220FAE770B5044619
:102600002168096921F44051E2681143226811618F
:102610002269A1681143626941EA02052168C9681B
:1026200041F20C62914329432268D16021684969D3
:1026300021F44071A2691143226851612D4A216839
:10264000914202D1FFF7C8FA01E0FFF7B5FA00EBBB
:10265000C00101EB001162689200B1FBF2F100EBE6
:10266000C00202EB001263689B00B2FBF3F264232A
:10267000B2FBF3F202EBC20303EB0212A1EB820105
:10268000322202EB01116422B1FBF2F101F0F00100
:1026900000EBC00202EB001263689B00B2FBF3F296
:1026A0006423B2FBF3F201EB021200EBC00101EB79
:1026B000001163689B00B1FBF3F100EBC00303EB77
:1026C00000136668B600B3FBF6F36426B3FBF6F3BB
:1026D00003EBC30606EB0313A1EB8301322303EBE9
:1026E00001116423B1FBF3F101F00F0111442268E1
:1026F000916070BD00380140014691F839002128F1
:1027000028D18868B0F5805F0BD1086948B90A6A9A
:102710001088C0F308000B685860086A801C0862C3
:1027200005E00B6A581C086218780B685860C88C62
:10273000401E80B2C88458B90868C06820F0800084
:102740000B68D8600868C06840F040000B68D8602B
:10275000002070470220FCE710B50648FFF7F8FCA0
:1027600000BF012204490348FFF730FE0028F8D1DA
:1027700010BD0000000100200E00002000BFFEE799
:10278000490050EAC12018BF04204A0D18BF40F08C
:10279000010040F2FF72B2EB515F08BF40F002004F
:1027A000012808BF0520704702480068C0F30220D6
:1027B000704700000CED00E010B5002804DB0A07AC
:1027C000130E054A135406E00A07140E034A00F0DC
:1027D0000F031B1FD45410BD00E400E018ED00E00F
:1027E00030380A2801D2012070470020704700BF0E
:1027F000704710B50446A0B200F0AEFA10BD00005C
:1028000000B585B00020019002900390049000BFB5
:1028100000BF1F48806940F004001D4988610846D8
:10282000806900F00400009000BF00BF00BF00BF3F
:1028300000BF0846806940F004008861084680694E
:1028400000F00400009000BF00BF00BF1020019006
:102850000120029003900320049001A90D48FEF787
:1028600077FE02200190002002900220039001A92F
:102870000848FEF76DFE00BF002210210548FFF753
:1028800019F800BF6A200449087005B000BD0000B7
:102890000010024000080140240000202DE9F04112
:1028A00007460E4614461D46EAB223463146034803
:1028B000007800F0BFF9BDE8F0810000240000209E
:1028C0002DE9F04107460E4614461D46EAB223465E
:1028D00031460348007800F0F2F9BDE8F0810000CD
:1028E0002400002010B500BF002204211148FEF78B
:1028F000E1FF00BF00F022F800BF012211030E48E3
:10290000FEF7D8FF00BF00F019F800BF00224FF417
:1029100080510948FEF7CEFF00BF00F00FF800BF5E
:10292000012204210348FEF7C5FF00BF00F006F8AE
:1029300010BD0000001401400010014010B502203D
:1029400000F026FA10BD000000B585B0002001900F
:1029500002900390049000BF00BF1A48806940F0C5
:102960001000184988610846806900F01000009046
:1029700000BF00BF00BF00BF00BF0846806940F035
:10298000200088610846806900F02000009000BFA8
:1029900000BF00BF88140190012002900390032023
:1029A000049001A90848FEF7D3FD042001901120EE
:1029B000029001A90548FEF7CBFD00F0BFF805B075
:1029C00000BD000000100240001001400014014052
:1029D00010B500BF012204210C48FEF76BFF00BFB9
:1029E000FFF7ACFF00BF012211030948FEF762FFA9
:1029F00000BFFFF7A3FF00BF00224FF4805104483F
:102A0000FEF758FF00BFFFF799FF10BD001401400B
:102A10000010014070B50546002400261DE0600648
:102A2000040E00BF012211031148FEF743FF00BF4F
:102A3000FFF784FF04210F48FEF72AFF08B1601C4E
:102A4000C4B200BF00224FF480510948FEF732FFA4
:102A500000BFFFF773FF701CC6B2082EDFDB15B98D
:102A6000FFF7B6FF01E0FFF73DFF204670BD000015
:102A7000001001400014014070B50446002525E017
:102A800000BFE00928B1012204211548FEF712FF1A
:102A900004E0002204211248FEF70CFF00BFFFF7FC
:102AA0004DFF00BF012211030E48FEF703FF00BFD8
:102AB000FFF744FF00BF00224FF480510948FEF7A2
:102AC000F9FE00BF6006040E681CC5B2082DD7DBF6
:102AD00000BF012204210248FEF7ECFE00BF70BDDA
:102AE000001401400010014010B500BF0122042174
:102AF0001048FEF7DFFE00BF00BF012211030E48A1
:102B0000FEF7D8FE00BFFFF719FF00BF0022042127
:102B10000848FEF7CFFE00BFFFF710FF00BF0022FE
:102B20004FF480510448FEF7C5FE00BFFFF706FFD3
:102B300010BD0000001401400010014010B500BF9E
:102B4000002204210C48FEF7B5FE00BFFFF7F6FE99
:102B500000BF012211030948FEF7ACFE00BFFFF7DA
:102B6000EDFE00BF012204210348FEF7A3FE00BFD3
:102B7000FFF7E4FE10BD000000140140001001400A
:102B800070B50024002500BF012204211548FEF77E
:102B900091FE00BFFFF7D2FE00BF012211031248D1
:102BA000FEF788FE00BFFFF7C9FE07E0601CC4B255
:102BB000FA2C03DDFFF7C2FF012505E004210948D7
:102BC000FEF766FE0028F1D100BF00BF00224FF4DF
:102BD00080510548FEF76EFE00BFFFF7AFFE2846A6
:102BE00070BD000000140140001001401CB5FFF74B
:102BF00007FEFFF7A9FE01A90D4805F0ACFC9DF802
:102C00000400702801D001201CBD0421084805F0F3
:102C100051FE00BF6946064805F010FE9DF8000011
:102C20000028F7D10121024805F07CFC0020EBE7E9
:102C3000280000202DE9F04105460F4614461E46A7
:102C4000FFF752FF002141EA4501C8B2FFF714FF28
:102C5000FFF796FF012804D1FFF770FF0220BDE8BF
:102C6000F0813846FFF708FFFFF78AFF012803D1FC
:102C7000FFF764FF0220F2E7FFF736FF012101EBC7
:102C80004501C8B2FFF7F8FEFFF77AFF012803D12C
:102C9000FFF754FF0220E2E70BE0012C01DD0121E8
:102CA00000E000210846FFF7B5FE3070601EC4B298
:102CB000761C002CF1D1FFF741FF0020CFE72DE972
:102CC000F04105460E4617469846FFF70DFF0021D6
:102CD00041EA4501C8B2FFF7CFFEFFF751FF0128D7
:102CE00004D1FFF72BFF0220BDE8F0813046FFF74B
:102CF000C3FEFFF745FF012803D1FFF71FFF0220A6
:102D0000F2E700240DE018F80400FFF7B5FEFFF726
:102D100037FF012803D1FFF711FF0220E4E7601C11
:102D2000C4B2BC42EFDBFFF709FF0020DCE7000084
:102D300010B5044600204FF0E0210861FFF7D8F9F4
:102D40002046E11704EB5171C1F3CF01014A118014
:102D500010BD00000400002070B504464FF47A70E6
:102D600094FBF0F594FBF0F100FB114603E00748FB
:102D700000F00EF86D1E002DF9D12EB14FF47A71CE
:102D800006FB01F000F004F870BD000040420F00A7
:102D90000146114A12884A434FF0E0235A6100224B
:102DA0009A611A46126942F001021A6100BF4FF09F
:102DB000E022106900F001021AB100F48032002A0A
:102DC000F5D04FF0E022126922F001024FF0E0232B
:102DD0001A6100229A6170470400002092B04FF0FF
:102DE000000BFFF703FF8246BAF1000F0ED067A079
:102DF000FDF71EFA09E000BF4FF480716A48FEF744
:102E00004FFD00BFC820FFF7A7FFF4E70521674883
:102E100005F0B3FD0521654805F0B0FC00216348CD
:102E200005F0E0FD0421614805F0DAFC9DF844005E
:102E300020F00100401C11909DF8440020F0040097
:102E4000001D11909DF8440020F0080008301190FA
:102E50005648119905F0BDFB0121544805F0A0FB2F
:102E60000021524805F083FB0121504805F01FFC6A
:102E700004214E4805F002FC86E010A94B4805F0FD
:102E80002FFC9DF8400000F0010090B10EA94748CA
:102E900005F0EEFABDF9380005F052FC0890BDF9D6
:102EA0003A0005F04DFC0990BDF93C0005F048FCE6
:102EB0000A909DF84000C0F3400090B10CA93B4837
:102EC00005F003FBBDF9300005F02EFC0590BDF9BF
:102ED000320005F029FC0690BDF9340005F024FC11
:102EE00007909DF84000C0F3800040B10BA92F4827
:102EF00005F015FDBDF92C0005F02EFC04900BF13A
:102F00000100C0B2834614283BD14FF0000B28A02B
:102F1000FDF78EF90A9805F0ADFF04460D460998B5
:102F200005F0A8FF06460F46089805F0A3FF804667
:102F300042460B462AA0CDE90067CDE90245FDF7E0
:102F400077F9079805F096FF04460D46069805F0B8
:102F500091FF06460F46059805F08CFF80464246D5
:102F60000B4629A0CDE90067CDE90245FDF760F9E0
:102F7000049805F07FFF044622460B462CA0FDF77F
:102F800057F90A20FFF7E8FE77E7000041544B2D80
:102F90004D533644535620696E6974206661696CDE
:102FA0006564210D0A00000000080140280000208F
:102FB0000D0A2A2A2A2A2A2A2A2A2A2A2A2A2A2AAE
:102FC0002A2A2A2A2A2A2A2A2A2A2A2A2A2A2A2A61
:102FD0002A2A2A2A2A2A2A2A2A2A2A2A0D0A0000E2
:102FE000416363656C65726174696F6E5B6D675D8B
:102FF0003A2025342E32662025342E3266202534A0
:103000002E32660D0A000000416E67756C617220F9
:10301000726174655B6D6470735D3A2025342E3285
:10302000662025342E32662025342E32660D0A00A5
:1030300054656D70657261747572655B6465674334
:103040005D3A2025362E32660D0A000000BF054A83
:10305000126802F04002002AF9D0C2B2014B1B1DD7
:103060001A6070470038014000B585B000BF00BF4E
:103070002948806940F01000274988610846806926
:1030800000F01000009000BF00BF00BF00BF00BFF5
:103090000846806940F0040088610846806900F0B5
:1030A0000400009000BF00BF00BF00BF00BF084683
:1030B000806940F0040088610846806900F00400DF
:1030C000009000BF00BF00BF2020019000200290B0
:1030D000012003900320049001A91048FEF738FA5C
:1030E0004FF4004001900020029001200390032043
:1030F000049001A90A48FEF72BFA01200190002054
:103100000290022003900320049001A90448FEF7D6
:103110001FFA05B000BD0000001002400010014081
:103120000008014078B5044600261B480588408801
:1031300045430021084604F095FD00BF164800896C
:1031400000904FF080701549086140000861BDF89B
:103150000000134908604FF4000010490861802006
:1031600008618000086100BF00BF40100861400492
:10317000086100BF08E00A4804604FF400000749F6
:10318000086180200861761CAE42F4D34FF40070D1
:103190000249086178BD0000400100200010014094
:1031A0000C0C014010B5044658488471002C58D1CD
:1031B000F020564908804FF4A07048800846808867
:1031C00045F21051884210D14FF430504F490881D8
:1031D0004FF4285048814FF42C5088814FF4F07000
:1031E00008804FF4487048801AE04848808841F6CB
:1031F000631188420DD12C20444908812B2048813D
:103200002A2088814FF4F07008804FF4487048807D
:1032100006E02C203D4908812A2048812B20888106
:103220003A48808845F21031884205D03748808876
:1032300047F29671884206D14FF4A0703349088056
:103240004FF4F07048803148808849F60601884282
:1032500058D14FF4F0702D4908804FF448704880E1
:1032600050E04FF4A07029490880F02048800846BB
:10327000808845F21051884210D14FF430502349D4
:1032800008814FF4285048814FF42C5088814FF426
:10329000487008804FF4F070488020E01B48808818
:1032A00041F66311884205D01848808849F6060126
:1032B00088420DD12C20154908812A2048812B20D5
:1032C00088814FF4487008804FF4F070488006E021
:1032D0002C200E4908812A2048812B2088810B4808
:1032E000808845F21031884205D00848808847F22E
:1032F0009671884206D14FF4F070044908804FF46B
:10330000A0704880002004F019FA10BD4001002090
:1033100078B505460E4614463146284604F0A2FC10
:1033200000BF1248008900904FF08070104908617A
:1033300040000861BDF800000E4908604FF400002D
:103340000B490861802008618000086100BF00BF50
:103350004010086140040861064804604FF4000012
:103360000861802008618000086178BD400100206C
:10337000001001400C0C014008B5CF2000904FF028
:103380008070FE49086140000861BDF80000FC49FA
:1033900008604FF40000F94908618020086180004E
:1033A000086100BF002004F0DFFFC12004F0DCFF53
:1033B000302004F0D9FFED2000904FF08070EF49ED
:1033C000086140000861BDF80000ED4908604FF455
:1033D0000000EA490861802008618000086100BFA0
:1033E000642004F0C1FF032004F0BEFF122004F0AB
:1033F000BBFF812004F0B8FFE82000904FF0807000
:10340000DE49086140000861BDF80000DC49086041
:103410004FF40000D94908618020086180000861EC
:1034200000BF852004F0A0FF102004F09DFF7A204B
:1034300004F09AFFCB2000904FF08070CF490861D4
:1034400040000861BDF80000CD4908604FF400005D
:10345000CA490861802008618000086100BF3920E6
:1034600004F082FF2C2004F07FFF002004F07CFF9A
:10347000342004F079FF022004F076FFF72000905A
:103480004FF08070BD49086140000861BDF8000040
:10349000BB4908604FF40000B8490861802008610A
:1034A0008000086100BF202004F05EFFEA20009049
:1034B0004FF08070B149086140000861BDF800001C
:1034C000AF4908604FF40000AC49086180200861F2
:1034D0008000086100BF002004F046FF002004F0D7
:1034E00043FFC02000904FF08070A4490861400065
:1034F0000861BDF80000A24908604FF400009F4930
:103500000861802008618000086100BF1B2004F072
:103510002BFFC12000904FF0807098490861400057
:103520000861BDF80000964908604FF40000934917
:103530000861802008618000086100BF012004F05C
:1035400013FFC52000904FF080708C490861400047
:103550000861BDF800008A4908604FF400008749FF
:103560000861802008618000086100BF302004F0FD
:10357000FBFE302004F0F8FEC72000904FF0807072
:103580007E49086140000861BDF800007C49086080
:103590004FF40000794908618020086180000861CB
:1035A00000BFB72004F0E0FE362000904FF080709E
:1035B0007249086140000861BDF800007049086068
:1035C0004FF400006D4908618020086180000861A7
:1035D00000BF482004F0C8FE3A2000904FF08070F1
:1035E0006649086140000861BDF800006449086050
:1035F0004FF4000061490861802008618000086183
:1036000000BF552004F0B0FEB12000904FF0807054
:103610005A49086140000861BDF800005849086037
:103620004FF400005549086180200861800008615E
:1036300000BF002004F098FE1A2004F095FEB6208A
:1036400000904FF080704D49086140000861BDF85E
:1036500000004B4908604FF4000048490861802091
:1036600008618000086100BF0A2004F07DFEA220EE
:1036700004F07AFEF22000904FF080703F4908611C
:1036800040000861BDF800003D4908604FF40000AB
:103690003A490861802008618000086100BF00206D
:1036A00004F062FE262000904FF0807033490861DC
:1036B00040000861BDF80000314908604FF4000087
:1036C0002E490861802008618000086100BF012048
:1036D00004F04AFEE02000904FF080702749086116
:1036E00040000861BDF80000254908604FF4000063
:1036F00022490861802008618000086100BF0F2016
:1037000004F032FE2A2004F02FFE282004F02CFEC4
:10371000082004F029FE0E2004F026FE082004F004
:1037200023FE542004F020FEA92004F01DFE4320B7
:1037300004F01AFE0A2004F017FE0F2004F014FE15
:10374000002004F011FE002004F00EFE002004F022
:103750000BFE002004F008FEE12000904FF0807086
:103760000649086140000861BDF80000044908608E
:103770004FF4000001490861802003E0001001407F
:103780000C0C014008618000086100BF002004F0BB
:10379000EBFD152004F0E8FD172004F0E5FD0720FF
:1037A00004F0E2FD112004F0DFFD062004F0DCFD52
:1037B0002B2004F0D9FD562004F0D6FD3C2004F067
:1037C000D3FD052004F0D0FD102004F0CDFD0F2026
:1037D00004F0CAFD3F2004F0C7FD3F2004F0C4FD03
:1037E0000F2004F0C1FD2B2000904FF0807036496F
:1037F000086140000861BDF80000344908604FF4DA
:10380000000031490861802008618000086100BF24
:10381000002004F0A9FD002004F0A6FD012004F022
:10382000A3FD3F2004F0A0FD2A2000904FF08070FF
:103830002549086140000861BDF80000234908607F
:103840004FF4000020490861802008618000086171
:1038500000BF002004F088FD002004F085FD00205A
:1038600004F082FDEF2004F07FFD112000904FF066
:1038700080701549086140000861BDF800001349D7
:1038800008604FF400001049086180200861800042
:10389000086100BF7820FFF75FFA292000904FF001
:1038A00080700949086140000861BDF800000749BF
:1038B00008604FF40000044908618020086180001E
:1038C000086100BF08BD0000001001400C0C014061
:1038D00008B5FF2000904FF08070FE49086140005D
:1038E0000861BDF80000FC4908604FF40000F94988
:1038F0000861802008618000086100BFFF2004F09B
:1039000033FD982004F030FD062004F02DFDBC208E
:1039100000904FF08070EF49086140000861BDF8E9
:103920000000ED4908604FF40000EA49086180207A
:1039300008618000086100BF012004F015FD0F2020
:1039400004F012FD612004F00FFDFF2004F00CFDD7
:10395000012004F009FD012004F006FD0B2004F015
:1039600003FD102004F000FD372004F0FDFC63206F
:1039700004F0FAFCFF2004F0F7FCFF2004F0F4FC54
:10398000012004F0F1FC012004F0EEFC002004F022
:10399000EBFC002004F0E8FCFF2004F0E5FC5220E2
:1039A00004F0E2FC012004F0DFFC002004F0DCFC69
:1039B000402004F0D9FCBD2000904FF08070C54934
:1039C000086140000861BDF80000C34908604FF479
:1039D0000000C0490861802008618000086100BFC4
:1039E000012004F0C1FC232004F0BEFC452004F0BB
:1039F000BBFC672004F0B8FC012004F0B5FC2320D8
:103A000004F0B2FC452004F0AFFC672004F0ACFCED
:103A1000BE2000904FF08070AE4908614000086100
:103A2000BDF80000AC4908604FF40000A9490861E6
:103A3000802008618000086100BF002004F094FC31
:103A4000012004F091FCAB2004F08EFC602004F017
:103A50008BFC222004F088FC222004F085FC22202C
:103A600004F082FC222004F07FFC222004F07CFC85
:103A7000C72000904FF080709649086140000861AF
:103A8000BDF80000944908604FF4000091490861B6
:103A9000802008618000086100BF362004F064FCCB
:103AA000ED2000904FF080708A4908614000086165
:103AB000BDF80000884908604FF40000854908619E
:103AC000802008618000086100BF7F2004F04CFC6A
:103AD0000F2004F049FCC02000904FF080707D4919
:103AE000086140000861BDF800007B4908604FF4A0
:103AF000000078490861802008618000086100BFEB
:103B00000F2004F031FC0B2004F02EFC0A2004F0FE
:103B10002BFCFC2000904FF080706E490861400043
:103B20000861BDF800006C4908604FF40000694965
:103B30000861802008618000086100BF082004F04F
:103B400013FCDF2000904FF0807062490861400054
:103B50000861BDF80000604908604FF400005D494D
:103B60000861802008618000086100BF002004F027
:103B7000FBFB002004F0F8FB002004F0F5FB002024
:103B800004F0F2FB002004F0EFFB202004F0ECFB3B
:103B9000F32000904FF080704E49086140000861AA
:103BA000BDF800004C4908604FF400004949086125
:103BB000802008618000086100BF742004F0D4FBFD
:103BC000B42000904FF080704249086140000861C5
:103BD000BDF80000404908604FF400003D4908610D
:103BE000802008618000086100BF002004F0BCFB59
:103BF000002004F0B9FB002004F0B6FBF720009091
:103C00004FF080703349086140000861BDF8000042
:103C1000314908604FF400002E4908618020086196
:103C20008000086100BF822004F09EFBB12000905C
:103C30004FF080702749086140000861BDF800001E
:103C4000254908604FF4000022490861802008617E
:103C50008000086100BF002004F086FB132004F000
:103C600083FB132004F080FBF22000904FF0807063
:103C70001849086140000861BDF800001649086055
:103C80004FF400001349086180200861800008613A
:103C900000BF802004F068FB042004F065FB402096
:103CA00004F062FB282004F05FFBC12000904FF07D
:103CB00080700849086140000861BDF800000649AD
:103CC00008604FF40000034908618020086180000B
:103CD000086103E0001001400C0C014000BF1720F8
:103CE00004F042FB882004F03FFB882004F03CFBFA
:103CF000202004F039FBE02000904FF080709F49B5
:103D0000086140000861BDF800009D4908604FF45B
:103D100000009A490861802008618000086100BFA6
:103D2000002004F021FB0A2004F01EFB122004F006
:103D30001BFB102004F018FB0E2004F015FB2020C4
:103D400004F012FBCC2004F00FFB072004F00CFB66
:103D5000062004F009FB0B2004F006FB0E2004F003
:103D600003FB0F2004F000FB0D2004F0FDFA1520EA
:103D700004F0FAFA102004F0F7FA002004F0F4FA44
:103D8000E12000904FF080707C490861400008619C
:103D9000BDF800007A4908604FF4000077490861D7
:103DA000802008618000086100BF002004F0DCFA78
:103DB0000B2004F0D9FA132004F0D6FA0D2004F0F9
:103DC000D3FA0E2004F0D0FA1B2004F0CDFA7120B3
:103DD00004F0CAFA062004F0C7FA062004F0C4FA78
:103DE0000A2004F0C1FA0F2004F0BEFA0E2004F0FD
:103DF000BBFA0F2004F0B8FA152004F0B5FA0C2035
:103E000004F0B2FA002004F0AFFA2A2000904FF03C
:103E100080705A49086140000861BDF800005849A7
:103E200008604FF400005549086180200861800057
:103E3000086100BF002004F097FA002004F094FA13
:103E4000012004F091FADF2004F08EFA2B2000907C
:103E50004FF080704949086140000861BDF80000DA
:103E6000474908604FF40000444908618020086118
:103E70008000086100BF002004F076FA002004F002
:103E800073FA032004F070FA1F2004F06DFA3A2050
:103E900000904FF080703949086140000861BDF81A
:103EA0000000374908604FF4000034490861802061
:103EB00008618000086100BF552004F055FA3620E3
:103EC00000904FF080702D49086140000861BDF8F6
:103ED00000002B4908604FF4000028490861802049
:103EE00008618000086100BF002004F03DFA112045
:103EF00000904FF080702149086140000861BDF8D2
:103F000000001F4908604FF400001C490861802030
:103F100008618000086100BF7820FEF71DFF29209E
:103F200000904FF080701549086140000861BDF8AD
:103F30000000134908604FF4000010490861802018
:103F400008618000086100BF1420FEF705FF2C20E7
:103F500000904FF080700949086140000861BDF889
:103F60000000074908604FF4000004490861802000
:103F700008618000086100BF08BD0000001001401A
:103F80000C0C014008B5ED2000904FF08070FE4908
:103F9000086140000861BDF80000FC4908604FF46A
:103FA0000000F9490861802008618000086100BFB5
:103FB000012004F0D9F9FE2004F0D6F9EE2000909B
:103FC0004FF08070F049086140000861BDF80000C2
:103FD000EE4908604FF40000EB4908618020086159
:103FE0008000086100BFDE2004F0BEF9212004F04B
:103FF000BBF9F12000904FF08070E3490861400068
:104000000861BDF80000E14908604FF40000DE4996
:104010000861802008618000086100BF012004F071
:10402000A3F9DF2000904FF08070D749086140006D
:104030000861BDF80000D54908604FF40000D2497E
:104040000861802008618000086100BF102004F032
:104050008BF9C42000904FF08070CB49086140007C
:104060000861BDF80000C94908604FF40000C64966
:104070000861802008618000086100BF8F2004F083
:1040800073F9C62000904FF08070BF49086140006E
:104090000861BDF80000BD4908604FF40000BA494E
:1040A0000861802008618000086100BF002004F0E2
:1040B0005BF9E22004F058F9E22004F055F9E2201F
:1040C00004F052F9BF2000904FF08070AE490861B3
:1040D00040000861BDF80000AC4908604FF40000E2
:1040E000A9490861802008618000086100BFAA20FA
:1040F00004F03AF9B02000904FF08070A2490861B6
:1041000040000861BDF80000A04908604FF40000BD
:104110009D490861802008618000086100BF0D2072
:1041200004F022F9002004F01FF90D2004F01CF91E
:10413000002004F019F9112004F016F9002004F011
:1041400013F9192004F010F9002004F00DF92120D2
:1041500004F00AF9002004F007F92D2004F004F916
:10416000002004F001F93D2004F0FEF8002004F0E6
:10417000FBF85D2004F0F8F8002004F0F5F85D206D
:1041800004F0F2F8002004F0EFF8B12000904FF0B6
:1041900080707D49086140000861BDF800007B49DE
:1041A00008604FF4000078490861802008618000B1
:1041B000086100BF802004F0D7F8002004F0D4F894
:1041C0008B2004F0D1F8002004F0CEF8962004F003
:1041D000CBF8002004F0C8F8B22000904FF08070B7
:1041E0006949086140000861BDF80000674908603E
:1041F0004FF4000064490861802008618000086174
:1042000000BF002004F0B0F8002004F0ADF8022058
:1042100004F0AAF8002004F0A7F8032004F0A4F8A2
:10422000002004F0A1F8B32000904FF080705649B0
:10423000086140000861BDF80000544908604FF46F
:10424000000051490861802008618000086100BFBA
:10425000002004F089F8002004F086F8002004F023
:1042600083F8002004F080F8002004F07DF800209E
:1042700004F07AF8002004F077F8002004F074F8D5
:10428000002004F071F8002004F06EF8002004F023
:104290006BF8002004F068F8002004F065F80020B6
:1042A00004F062F8002004F05FF8002004F05CF8ED
:1042B000002004F059F8002004F056F8002004F023
:1042C00053F8002004F050F8002004F04DF80020CE
:1042D00004F04AF8002004F047F8002004F044F805
:1042E000B42000904FF080702749086140000861B9
:1042F000BDF80000254908604FF40000224908611C
:10430000802008618000086100BF8B2004F02CF839
:10431000002004F029F8962004F026F8002004F08C
:1043200023F8A12004F020F8002004F01DF8B520A7
:1043300000904FF080701449086140000861BDF89A
:104340000000124908604FF400000F490861802006
:1043500008618000086100BF022004F005F8002019
:1043600004F002F8032003F0FFFF002003F0FCFF3D
:10437000042003F0F9FF002003F0F6FFB6200090C0
:104380004FF08070004903E0001001400C0C014028
:10439000086140000861BDF80000FE4908604FF464
:1043A0000000FD490861802008618000086100BFAD
:1043B000002003F0D9FF002003F0D6FFB7200090C3
:1043C0004FF08070F449086140000861BDF80000BA
:1043D000F04908604FF40000EF490861802008614F
:1043E0008000086100BF002003F0BEFF002003F042
:1043F000BBFF3F2003F0B8FF002003F0B5FF5E20B5
:1044000003F0B2FF002003F0AFFF642003F0ACFF25
:10441000002003F0A9FF8C2003F0A6FF002003F08A
:10442000A3FFAC2003F0A0FF002003F09DFFDC20E1
:1044300003F09AFF002003F097FF702003F094FF31
:10444000002003F091FF902003F08EFF002003F086
:104450008BFFEB2003F088FF002003F085FFDC20BA
:1044600003F082FF002003F07FFFB82000904FF0A0
:104470008070C949086140000861BDF80000C54965
:1044800008604FF40000C449086180200861800082
:10449000086100BF002003F067FF002003F064FF05
:1044A000002003F061FF002003F05EFF002003F016
:1044B0005BFF002003F058FF002003F055FF0020B1
:1044C00003F052FFBA2000904FF08070B2490861AB
:1044D00040000861BDF80000AE4908604FF40000DC
:1044E000AD490861802008618000086100BF242078
:1044F00003F03AFF002003F037FF002003F034FF01
:10450000002003F031FFC12000904FF08070A249DD
:10451000086140000861BDF800009E4908604FF442
:1045200000009D490861802008618000086100BF8B
:10453000202003F019FF002003F016FF542003F0A1
:1045400013FF002003F010FFFF2003F00DFF0020F9
:1045500003F00AFFC22000904FF080708E4908617E
:1045600040000861BDF800008A4908604FF400006F
:1045700089490861802008618000086100BF0A2025
:1045800003F0F2FE002003F0EFFE042003F0ECFE47
:10459000002003F0E9FEC32000904FF080707E49B8
:1045A000086140000861BDF800007A4908604FF4D6
:1045B000000079490861802008618000086100BF1F
:1045C0003C2003F0D1FE002003F0CEFE3A2003F0A1
:1045D000CBFE002003F0C8FE392003F0C5FE00200A
:1045E00003F0C2FE372003F0BFFE002003F0BCFE44
:1045F0003C2003F0B9FE002003F0B6FE362003F0A5
:10460000B3FE002003F0B0FE322003F0ADFE002028
:1046100003F0AAFE2F2003F0A7FE002003F0A4FE63
:104620002C2003F0A1FE002003F09EFE292003F0C1
:104630009BFE002003F098FE262003F095FE00204C
:1046400003F092FE242003F08FFE002003F08CFE86
:10465000242003F089FE002003F086FE232003F0CF
:1046600083FE002003F080FE3C2003F07DFE00204E
:1046700003F07AFE362003F077FE002003F074FE8C
:10468000322003F071FE002003F06EFE2F2003F0B5
:104690006BFE002003F068FE2C2003F065FE002076
:1046A00003F062FE292003F05FFE002003F05CFEB1
:1046B000262003F059FE002003F056FE242003F0CC
:1046C00053FE002003F050FE242003F04DFE002096
:1046D00003F04AFE232003F047FE002003F044FECF
:1046E000C42000904FF080702B49086140000861A1
:1046F000BDF80000274908604FF400002649086112
:10470000802008618000086100BF622003F02CFE59
:10471000002003F029FE052003F026FE002003F010
:1047200023FE842003F020FE002003F01DFEF02075
:1047300003F01AFE002003F017FE182003F014FE09
:10474000002003F011FEA42003F00EFE002003F071
:104750000BFE182003F008FE002003F005FE502099
:1047600003F002FE002003F0FFFD0C2003F0FCFD2F
:10477000002003F0F9FD172003F0F6FD002003F000
:10478000F3FD952003F0F0FD002003F0EDFDF32094
:1047900004E000000C0C01400010014003F0E4FDB7
:1047A000002003F0E1FDE62003F0DEFD002003F031
:1047B000DBFDC52000904FF08070FE49086140008D
:1047C0000861BDF80000FC4908604FF40000F94999
:1047D0000861802008618000086100BF322003F07A
:1047E000C3FD002003F0C0FD442003F0BDFD002008
:1047F00003F0BAFD652003F0B7FD002003F0B4FD1F
:10480000762003F0B1FD002003F0AEFD882003F018
:10481000ABFD002003F0A8FDC62000904FF0807093
:10482000E449086140000861BDF80000E249086001
:104830004FF40000DF4908618020086180000861B2
:1048400000BF202003F090FD002003F08DFD172015
:1048500003F08AFD002003F087FD012003F084FDB2
:10486000002003F081FDC72000904FF08070D149F7
:10487000086140000861BDF80000CF4908604FF4AE
:104880000000CC490861802008618000086100BFF9
:10489000002003F069FD002003F066FD002003F016
:1048A00063FD002003F060FDC82000904FF0807091
:1048B000C049086140000861BDF80000BE490860B9
:1048C0004FF40000BB490861802008618000086146
:1048D00000BF002003F048FD002003F045FD00204C
:1048E00003F042FD002003F03FFDC92000904FF08F
:1048F0008070B049086140000861BDF80000AE4911
:1049000008604FF40000AB49086180200861800016
:10491000086100BF002003F027FD002003F024FD04
:10492000002003F021FD002003F01EFD002003F015
:104930001BFD002003F018FD002003F015FD0020F2
:1049400003F012FD002003F00FFD002003F00CFD2A
:10495000002003F009FD002003F006FD002003F015
:1049600003FD002003F000FD002003F0FDFC00200B
:1049700003F0FAFCE02000904FF080708D49086150
:1049800040000861BDF800008B4908604FF400004A
:1049900088490861802008618000086100BF1620F6
:1049A00003F0E2FC002003F0DFFC1C2003F0DCFC41
:1049B000002003F0D9FC212003F0D6FC002003F0F6
:1049C000D3FC362003F0D0FC002003F0CDFC4620C1
:1049D00003F0CAFC002003F0C7FC522003F0C4FC23
:1049E000002003F0C1FC642003F0BEFC002003F0B3
:1049F000BBFC7A2003F0B8FC002003F0B5FC8B2050
:104A000003F0B2FC002003F0AFFC992003F0ACFCF3
:104A1000002003F0A9FCA82003F0A6FC002003F06E
:104A2000A3FCB92003F0A0FC002003F09DFCC420EF
:104A300003F09AFC002003F097FCCA2003F094FCDA
:104A4000002003F091FCD22003F08EFC002003F044
:104A50008BFCD92003F088FC002003F085FCE020CB
:104A600003F082FC002003F07FFCF32003F07CFCC9
:104A7000002003F079FCE12000904FF080704D4958
:104A8000086140000861BDF800004B4908604FF420
:104A9000000048490861802008618000086100BF6B
:104AA000162003F061FC002003F05EFC1C2003F0E4
:104AB0005BFC002003F058FC222003F055FC002092
:104AC00003F052FC362003F04FFC002003F04CFCB6
:104AD000452003F049FC002003F046FC522003F07F
:104AE00043FC002003F040FC642003F03DFC002068
:104AF00003F03AFC7A2003F037FC002003F034FC8A
:104B00008B2003F031FC002003F02EFC992003F0F1
:104B10002BFC002003F028FCA82003F025FC00203B
:104B200003F022FCB92003F01FFC002003F01CFC62
:104B3000C42003F019FC002003F016FCCA2003F087
:104B400013FC002003F010FCD22003F00DFC002029
:104B500003F00AFCD82003F007FC002003F004FC5B
:104B6000E02003F001FC002003F0FEFBF32003F043
:104B7000FBFB002003F0F8FBE22000904FF0807078
:104B80000C49086140000861BDF800000A4908604E
:104B90004FF4000007490861802008618000086127
:104BA00000BF052003F0E0FB002003F0DDFB0B203D
:104BB00004E00000001001400C0C014003F0D4FBA5
:104BC000002003F0D1FB1B2003F0CEFB002003F0FC
:104BD000CBFB342003F0C8FB002003F0C5FB4420CE
:104BE00003F0C2FB002003F0BFFB4F2003F0BCFB2F
:104BF000002003F0B9FB612003F0B6FB002003F0B6
:104C0000B3FB792003F0B0FB002003F0ADFB88205C
:104C100003F0AAFB002003F0A7FB972003F0A4FBFE
:104C2000002003F0A1FBA62003F09EFB002003F070
:104C30009BFBB72003F098FB002003F095FBC220FC
:104C400003F092FB002003F08FFBC72003F08CFBE6
:104C5000002003F089FBD12003F086FB002003F045
:104C600083FBD62003F080FB002003F07DFBDD20DA
:104C700003F07AFB002003F077FBF32003F074FBD2
:104C8000002003F071FBE32000904FF08070FE499C
:104C9000086140000861BDF80000FC4908604FF45D
:104CA0000000F9490861802008618000086100BFA8
:104CB000052003F059FB002003F056FB0A2003F007
:104CC00053FB002003F050FB1C2003F04DFB0020A1
:104CD00003F04AFB332003F047FB002003F044FBC2
:104CE000442003F041FB002003F03EFB502003F082
:104CF0003BFB002003F038FB622003F035FB002073
:104D000003F032FB782003F02FFB002003F02CFB94
:104D1000882003F029FB002003F026FB972003F0F6
:104D200023FB002003F020FBA62003F01DFB002046
:104D300003F01AFBB72003F017FB002003F014FB6D
:104D4000C22003F011FB002003F00EFBC72003F08C
:104D50000BFB002003F008FBD12003F005FB002033
:104D600003F002FBD52003F0FFFA002003F0FCFA69
:104D7000DD2003F0F9FA002003F0F6FAF32003F047
:104D8000F3FA002003F0F0FAE42000904FF0807076
:104D9000BD49086140000861BDF80000BB490860DA
:104DA0004FF40000B8490861802008618000086164
:104DB00000BF012003F0D8FA002003F0D5FA01204B
:104DC00003F0D2FA002003F0CFFA022003F0CCFA6D
:104DD000002003F0C9FA2A2003F0C6FA002003F0ED
:104DE000C3FA3C2003F0C0FA002003F0BDFA4B20C8
:104DF00003F0BAFA002003F0B7FA5D2003F0B4FA2A
:104E0000002003F0B1FA742003F0AEFA002003F0A2
:104E1000ABFA842003F0A8FA002003F0A5FA93204F
:104E200003F0A2FA002003F09FFAA22003F09CFAFC
:104E3000002003F099FAB32003F096FA002003F063
:104E400093FABE2003F090FA002003F08DFAC420FC
:104E500003F08AFA002003F087FACD2003F084FAE9
:104E6000002003F081FAD32003F07EFA002003F043
:104E70007BFADD2003F078FA002003F075FAF320C6
:104E800003F072FA002003F06FFAE52000904FF073
:104E900080707D49086140000861BDF800007B49D1
:104EA00008604FF4000078490861802008618000A4
:104EB000086100BF002003F057FA002003F054FA05
:104EC000002003F051FA002003F04EFA022003F014
:104ED0004BFA002003F048FA292003F045FA00209D
:104EE00003F042FA3C2003F03FFA002003F03CFAC2
:104EF0004B2003F039FA002003F036FA5D2003F06E
:104F000033FA002003F030FA742003F02DFA002069
:104F100003F02AFA842003F027FA002003F024FA91
:104F2000932003F021FA002003F01EFAA22003F0E0
:104F30001BFA002003F018FAB32003F015FA002042
:104F400003F012FABE2003F00FFA002003F00CFA6F
:104F5000C42003F009FA002003F006FACD2003F084
:104F600003FA002003F000FAD32003F0FDF900203B
:104F700003F0FAF9DC2003F0F7F9002003F0F4F96C
:104F8000F32003F0F1F9002003F0EEF9E6200090A1
:104F90004FF080703C49086140000861BDF8000096
:104FA0003A4908604FF400003749086180200861E1
:104FB0008000086100BF112003F0D6F9002003F043
:104FC000D3F9342003F0D0F9002003F0CDF95620B6
:104FD00003F0CAF9002003F0C7F9762003F0C4F902
:104FE000002003F0C1F9772003F0BEF9002003F0A0
:104FF000BBF9662003F0B8F9002003F0B5F988206A
:1050000003F0B2F9002003F0AFF9992003F0ACF9F6
:10501000002003F0A9F9BB2003F0A6F9002003F05B
:10502000A3F9992003F0A0F9002003F09DF9662070
:1050300003F09AF9002003F097F9552003F094F952
:10504000002003F091F9552003F08EF9002003F0C1
:105050008BF9452003F088F9002003F085F94320FF
:1050600003F082F9002003F07FF9442003F07CF97B
:10507000002003F079F9E72000904FF0807002499A
:1050800008614000086103E0001001400C0C014081
:10509000BDF80000FE4908604FF40000FD490861BA
:1050A000802008618000086100BF322003F05CF9B5
:1050B000002003F059F9552003F056F9002003F0C1
:1050C00053F9762003F050F9002003F04DF96620E3
:1050D00003F04AF9002003F047F9672003F044F990
:1050E000002003F041F9672003F03EF9002003F0AF
:1050F0003BF9872003F038F9002003F035F99920B7
:1051000003F032F9002003F02FF9BB2003F02CF953
:10511000002003F029F9992003F026F9002003F07C
:1051200023F9772003F020F9002003F01DF9442033
:1051300003F01AF9002003F017F9562003F014F9D0
:10514000002003F011F9232003F00EF9002003F0F2
:105150000BF9332003F008F9002003F005F945208E
:1051600003F002F9002003F0FFF8E82000904FF070
:105170008070C849086140000861BDF80000C4495A
:1051800008604FF40000C349086180200861800076
:10519000086100BF002003F0E7F8002003F0E4F806
:1051A000992003F0E1F8002003F0DEF8872003F0F7
:1051B000DBF8002003F0D8F8882003F0D5F80020B1
:1051C00003F0D2F8772003F0CFF8002003F0CCF8FA
:1051D000662003F0C9F8002003F0C6F8882003F029
:1051E000C3F8002003F0C0F8AA2003F0BDF80020A7
:1051F00003F0BAF8BB2003F0B7F8002003F0B4F8CE
:10520000992003F0B1F8002003F0AEF8662003F017
:10521000ABF8002003F0A8F8552003F0A5F8002013
:1052200003F0A2F8552003F09FF8002003F09CF84B
:10523000442003F099F8002003F096F8442003F08E
:1052400093F8002003F090F8552003F08DF800202B
:1052500003F08AF8E92000904FF080708D490861D2
:1052600040000861BDF80000894908604FF4000063
:1052700088490861802008618000086100BFAA2079
:1052800003F072F8002003F06FF8002003F06CF8D0
:10529000002003F069F8002000904FF080707D49F5
:1052A000086140000861BDF80000794908604FF4CA
:1052B000000078490861802008618000086100BF13
:1052C000AA2003F051F8CF2000904FF08070714970
:1052D000086140000861BDF800006D4908604FF4A6
:1052E00000006C490861802008618000086100BFEF
:1052F000002003F039F8002003F036F8002003F016
:1053000033F8002003F030F8002003F02DF80020DF
:1053100003F02AF8002003F027F8002003F024F817
:10532000002003F021F8002003F01EF8002003F015
:105330001BF8002003F018F8002003F015F80020F7
:1053400003F012F8002003F00FF8002003F00CF82F
:10535000002003F009F8F02000904FF080704D49D4
:10536000086140000861BDF80000494908604FF439
:10537000000048490861802008618000086100BF82
:10538000002002F0F1FF502002F0EEFF002002F0BA
:10539000EBFF002002F0E8FF002002F0E5FFF32021
:1053A00000904FF080703B49086140000861BDF8F3
:1053B0000000374908604FF400003649086180203A
:1053C00008618000086100BF002002F0CDFFF920D5
:1053D00000904FF080702F49086140000861BDF8CF
:1053E00000002B4908604FF400002A490861802022
:1053F00008618000086100BF062002F0B5FF1020A0
:1054000002F0B2FF292002F0AFFF002002F0ACFF53
:105410003A2000904FF080701E49086140000861FA
:10542000BDF800001A4908604FF4000019490861EE
:10543000802008618000086100BF552002F094FFC1
:10544000112000904FF080701249086140000861FF
:10545000BDF800000E4908604FF400000D490861D6
:10546000802008618000086100BF6420FDF774FCA3
:10547000292000904FF080700649086140000861C3
:10548000BDF80000024908604FF40000014903E044
:105490000C0C014000100140086180200861800070
:1054A000086100BF352000904FF080700861400017
:1054B0000861BDF80000364908604FF40000354926
:1054C0000861802008618000086100BF002002F0B0
:1054D0004BFF512000904FF080702E490861400032
:1054E0000861BDF800002A4908604FF4000029490E
:1054F0000861802008618000086100BFFF2002F081
:1055000033FF532000904FF0807022490861400023
:105510000861BDF800001E4908604FF400001D49F5
:105520000861802008618000086100BF2C2002F023
:105530001BFF552000904FF0807016490861400015
:105540000861BDF80000124908604FF400001149DD
:105550000861802008618000086100BF822002F09D
:1055600003FF2C2000904FF080700A490861400032
:105570000861BDF80000064908604FF400000549C5
:105580000861802008618000086100BF08BD00003C
:105590000C0C01400010014008B555214FF470403B
:1055A00002F0F6FEAA214FF2010002F0F1FE5221B4
:1055B0004FF2020002F0ECFE08214FF2030002F06D
:1055C000E7FE01214FF2040002F0E2FE0D214FF44C
:1055D000304002F0DDFE0D214BF2010002F0D8FE5A
:1055E0000D214BF2020002F0D3FE34214FF436407D
:1055F00002F0CEFE34214BF2016002F0C9FE3421EC
:105600004BF2026002F0C4FE0D214FF4314002F073
:10561000BFFE0D214BF2011002F0BAFE0D214BF23C
:10562000021002F0B5FE34214FF4374002F0B0FE14
:1056300034214BF2017002F0ABFE34214BF20270C8
:1056400002F0A6FE00214FF4324002F0A1FE00213C
:105650004BF2012002F09CFE00214BF2022002F0EE
:1056600097FE24214FF4384002F092FE24214BF69D
:10567000010002F08DFE24214BF6020002F088FEAC
:1056800001214FF43F4002F083FE0F214FF43340DD
:1056900002F07EFE0F214BF2013002F079FE0F2165
:1056A0004BF2023002F074FE34214FF4394002F024
:1056B0006FFE34214BF6011002F06AFE34214BF6E6
:1056C000021002F065FE08214FF4354002F060FE42
:1056D00008214BF2015002F05BFE08214BF2025010
:1056E00002F056FE03214FF4424002F051FE242105
:1056F0004FF43A4002F04CFE24214BF6012002F018
:1057000047FE24214BF6022002F042FE00214FF416
:105710003C4002F03DFE78214BF6014002F038FE9D
:1057200000214BF6024002F033FE00214FF43D40D1
:1057300002F02EFE78214BF6015002F029FE0021E6
:105740004BF6025002F024FE00214FF43E4002F0DE
:105750001FFE64214BF6016002F01AFE00214FF497
:10576000514002F015FE33214DF2011002F010FEFF
:1057700000214DF2021002F00BFE34214DF2031015
:1057800002F006FE00214DF2041002F001FE3A2163
:105790004DF2051002F0FCFD00214DF2061002F062
:1057A000F7FD4A214DF2071002F0F2FD00214DF203
:1057B000081002F0EDFD5C214DF2091002F0E8FD49
:1057C00000214DF20A1002F0E3FD81214DF20B1091
:1057D00002F0DEFD00214DF20C1002F0D9FDA621F1
:1057E0004DF20D1002F0D4FD00214DF20E1002F02A
:1057F000CFFDE5214DF20F1002F0CAFD01214DF25F
:10580000101002F0C5FD13214DF2111002F0C0FD81
:1058100001214DF2121002F0BBFD54214DF2131084
:1058200002F0B6FD01214DF2141002F0B1FD82210B
:105830004DF2151002F0ACFD01214DF2161002F0F0
:10584000A7FDCA214DF2171002F0A2FD02214DF270
:10585000181002F09DFD00214DF2191002F098FD84
:1058600002214DF21A1002F093FD01214DF21B109E
:1058700002F08EFD02214DF21C1002F089FD342150
:105880004DF21D1002F084FD02214DF21E1002F0B7
:105890007FFD67214DF21F1002F07AFD02214DF2CB
:1058A000201002F075FD84214DF2211002F070FDF0
:1058B00002214DF2221002F06BFDA4214DF22310C3
:1058C00002F066FD02214DF2241002F061FDB721C5
:1058D0004DF2251002F05CFD02214DF2261002F07F
:1058E00057FDCF214DF2271002F052FD02214DF25B
:1058F000281002F04DFDDE214DF2291002F048FD86
:1059000002214DF22A1002F043FDF2214DF22B103C
:1059100002F03EFD02214DF22C1002F039FDFE2175
:105920004DF22D1002F034FD03214DF22E1002F045
:105930002FFD10214DF22F1002F02AFD03214DF210
:10594000301002F025FD33214DF2311002F020FD20
:1059500003214DF2321002F01BFD6D214DF2331088
:1059600002F016FD00214FF4524002F011FD3321E8
:105970004DF2012002F00CFD00214DF2022002F058
:1059800007FD34214DF2032002F002FD00214DF20B
:10599000042002F0FDFC3A214DF2052002F0F8FC53
:1059A00000214DF2062002F0F3FC4A214DF20720BF
:1059B00002F0EEFC00214DF2082002F0E9FC5C212F
:1059C0004DF2092002F0E4FC00214DF20A2002F021
:1059D000DFFC81214DF20B2002F0DAFC00214DF2B8
:1059E0000C2002F0D5FCA6214DF20D2002F0D0FCD7
:1059F00000214DF20E2002F0CBFCE5214DF20F20EC
:105A000002F0C6FC01214DF2102002F0C1FC13216E
:105A10004DF2112002F0BCFC01214DF2122002F0E7
:105A2000B7FC54214DF2132002F0B2FC01214DF2DB
:105A3000142002F0ADFC82214DF2152002F0A8FCEA
:105A400001214DF2162002F0A3FCCA214DF21720CD
:105A500002F09EFC02214DF2182002F099FC002178
:105A60004DF2192002F094FC02214DF21A2002F0AE
:105A70008FFC01214DF21B2002F08AFC02214DF225
:105A80001C2002F085FC34214DF21D2002F080FC28
:105A900002214DF21E2002F07BFC67214DF21F20F7
:105AA00002F076FC02214DF2202002F071FC8421EC
:105AB0004DF2212002F06CFC02214DF2222002F076
:105AC00067FCA4214DF2232002F062FC02214DF27A
:105AD000242002F05DFCB7214DF2252002F058FC95
